:020000040800F2
:10000000F806002065010008010F0008A90E00088D
:1000100000000000000000000000000000000000E0
:10002000000000000000000000000000050F0008B4
:100030000000000000000000030F0008070F000888
:100040009501000895010008950100089501000838
:100050009501000895010008950100089501000828
:100060009501000895010008950100089501000818
:100070009501000895010008950100089501000808
:100080009501000800000000000000009501000834
:100090000000000095010008950100089501000886
:1000A0000000000095010008950100089501000876
:1000B0009501000800000000950100089501000866
:1000C00000F002F800F03EF80CA030C80838241800
:1000D0002D18A246671EAB4654465D46AC4201D180
:1000E00000F030F87E460F3E0FCCB6460126334274
:1000F00000D0FB1AA246AB4633431847001300005A
:1001000020130000103A02D378C878C1FAD85207F9
:1001100001D330C830C101D504680C6070470000BD
:100120000023002400250026103A01D378C1FBD813
:10013000520700D330C100D50B6070471FB51FBDFB
:1001400010B510BD00F099F91146FFF7F7FF01F067
:1001500017F900F0B1F903B4FFF7F2FF03BC00F0A8
:10016000B7F900000F4880F308880F480168090EAE
:100170000E4A914205D10E480E4901600E480F49C2
:1001800001600F4880470F480047FEE7FEE7FEE7A3
:10019000FEE7FEE7FEE700000B480C490C4A0D4B5A
:1001A00070470000F8060020040000001F00000057
:1001B0001810024001000000000001400000000093
:1001C0005F0F0008C1000008F8000020F8060020BA
:1001D000F8020020F8020020FEB5054610460C4645
:1001E000184373D0AE468C460020AD1A01469C41A0
:1001F00067D36646002701243D46B61A9D4102D3C7
:1002000013463A462124654676462F04360C3E4373
:100210002D0CB61A9D4104D3150C1B042B4312045C
:100220001034654676462F06360A3E432D0AB61A26
:100230009D4104D3150E1B022B4312020834654660
:1002400076462F0736093E432D09B61A9D4104D341
:10025000150F1B012B431201241D65467646AF077F
:10026000B6083E43AD08B61A9D4104D3950F9B00D6
:100270002B439200A41C65467646EF0776083E4362
:100280006D08B61A9D411AD392185B41641C16E0A2
:100290000018764665464941B71A9D410191009084
:1002A00009D36046B11A98418E4684460098019958
:1002B0000025401C6941DD0752082A435B08641E83
:1002C000E6D57246634603B0F0BDFFE70020014665
:1002D000C046C0462A462346F5E701E004C0091F90
:1002E0000429FBD28B0701D50280801CC90700D0EE
:1002F0000270704700290BD0C30702D00270401C67
:10030000491E022904D3830702D50280801C891E5E
:10031000E3E70022EEE70022DFE7002203098B4239
:100320002CD3030A8B4211D300239C464EE0034694
:100330000B433CD4002243088B4231D303098B4248
:100340001CD3030A8B4201D394463FE0C3098B427E
:1003500001D3CB01C01A524183098B4201D38B01D7
:10036000C01A524143098B4201D34B01C01A52417A
:1003700003098B4201D30B01C01A5241C3088B42BF
:1003800001D3CB00C01A524183088B4201D38B00AA
:10039000C01A524143088B4201D34B00C01A52414C
:1003A000411A00D201465241104670475DE0CA0F23
:1003B00000D04942031000D34042534000229C46E3
:1003C00003098B422DD3030A8B4212D3FC228901ED
:1003D00012BA030A8B420CD3890192118B4208D3C3
:1003E000890192118B4204D389013AD0921100E025
:1003F0008909C3098B4201D3CB01C01A5241830939
:100400008B4201D38B01C01A524143098B4201D365
:100410004B01C01A524103098B4201D30B01C01A90
:100420005241C3088B4201D3CB00C01A524183080A
:100430008B4201D38B00C01A5241D9D243088B4260
:1004400001D34B00C01A5241411A00D20146634603
:1004500052415B10104601D34042002B00D5494267
:10046000704763465B1000D3404201B50020C04690
:10047000C04602BD704770477047754600F024F8CB
:10048000AE46050069465346C008C000854618B010
:1004900020B5FFF781FE60BC00274908B64600265C
:1004A000C0C5C0C5C0C5C0C5C0C5C0C5C0C5C0C524
:1004B000403D49008D46704710B50446C046C046D1
:1004C0002046FFF748FE10BD004870479800002006
:1004D00001491820ABBEFEE726000200704772B645
:1004E000FEE7000070B5044600F0DAF80546601C2F
:1004F00002D004480078241800F0D2F8401BA04233
:10050000FAD370BD00000020F8B5002303240125B4
:10051000B5E02E469E40B44632407CD00E79B607F8
:10052000B60F012E01D0022E17D186682746B64697
:100530005E00B74000967646BE43B646CF68009E42
:10054000B74076463743876046686746BE430F79B3
:10055000FF06FF0F9F40374347600E79F643B6070B
:100560000ED0C6682746B4465E00B646B74066461B
:10057000BE43B4468F687646B74066463743C76089
:100580000E79B607B60F022E14D1DE08B600361863
:100590000096366A5F07B446FE0E0F27B646B74090
:1005A0006646BE43B4460F697646B7406646374353
:1005B000009E376206682746B4465E00B646B740DE
:1005C0006646BE430F79B446BF07BF0F7646B740B5
:1005D0006646374307604E68B603B60F4ED02B4FC2
:1005E000BE692E43BE61BE699F08F607F60F284E0E
:1005F000BF00BE190096B6680F27B4469E07360F97
:10060000B646B7406646BE430927FF06B446B84221
:1006100002D100270BE031E01E4FB84201D1012783
:1006200005E01D4FB84201D1022700E005277646BC
:10063000B74066463743009EB760184EB6684F68AD
:100640009643FF0200D51643144FBE60FE684F6804
:100650009643BF0200D51643104FFE607E684F6878
:100660009643BF0300D516430C4F7E603E684F682B
:100670009643FF0300D51643084A16605B1C0A68C0
:100680001646DE4000D044E7F8BD000000100240EE
:100690000000014000040048000800480004014038
:1006A000014880687047000000000020024881680F
:1006B00002788918816070470000002010B5064854
:1006C0000168102211430160032000F007F800F0D8
:1006D00027F8002010BD00000020024070B504463D
:1006E0000D4D7D202978C000FFF717FE01460B480D
:1006F0000068FFF712FE00F0F9FA002809D1042C77
:1007000007D200222146401E00F01EF800206C6037
:1007100070BD012070BD0000000000200C00002012
:1007200008B508488169012211438161816911403E
:100730000091C26901040A43C261C0690840009087
:1007400008BD00000010024010B500F0F7FD10BD1C
:10075000F8B50F4606005ED03C4D2868C007C00FB4
:10076000B84209D228684008400038432860286809
:10077000C007C00FB8424ED13068354C81070CD548
:10078000400704D56068072109020843606060687B
:10079000F0218843B168084360603078C0072BD0EF
:1007A0007068012810D0022810D0032811D02168C9
:1007B000890700292FDA616889088900014361608F
:1007C000FFF76EFF009010E0216803E021688901C7
:1007D000EFE7616B8903ECE7FFF762FF0099411ACD
:1007E0001C48814201D90320F8BD60680C210840F3
:1007F000716889008842EFD12868C007C00FB842ED
:100800000BD9286840084000384328602868C00792
:10081000C00FB84201D00120F8BD3078400706D59E
:100820006068072109028843F1680843606000F0AE
:1008300027F86168084A0906090F515CC840074952
:1008400008600320FFF74AFF0020F8BD00200240A7
:100850000010024088130000E41300080C00002080
:100860000448054900684968044A4905490F515C34
:10087000C84070470C00002000100240F41300082C
:1008800070B5154A51680C200B4603401348042BE1
:1008900005D0134D082B03D00C2B00D1284670BD7A
:1008A0008B02104C1B0FE45CD26A0E4B1207120F26
:1008B0001033C9039A5C890F022901D0032901D0A2
:1008C000002301E0002328460021FFF785FC214694
:1008D00000F01BFD70BD00000010024000127A0005
:1008E000006CDC02C4130008FEB5040070D0207850
:1008F000F94EFA4DC00748D068680007800F0128FC
:100900001FD068680007800F022804D16868C00300
:10091000800F022815D06168012919D001208004B8
:10092000002901D0052917D02968B1432960296819
:1009300081432960606800281BD0FFF7B1FE07469D
:1009400013E02868800320D560680028CED01CE022
:10095000286830432860EDE7296801432960F7E7FC
:10096000FFF79EFEC01B642870D828688003F7D567
:100970000BE0FFF795FE074604E0FFF791FEC01B72
:100980006428F1D828688003F7D4207880073FD501
:1009900068680007800F14D068680007800F02287D
:1009A00004D16868C003800F01280AD0E0680028DD
:1009B00028681ED0012108432860FFF771FE074612
:1009C0000CE0286880070CD5E068012800D108E019
:1009D00080E1FFF765FEC01B0228C5D828688007A4
:1009E000F7D52868F82188432169C90008432860A1
:1009F0000EE0400840002860FFF752FE074604E082
:100A0000FFF74EFEC01B0228AED828688007F7D437
:100A10002078000723D5E0690028686A0FD00121FB
:100A200008436862FFF73CFE074604E0FFF738FE24
:100A3000C01B022898D8686A8007F7D50FE04008E5
:100A400040006862FFF72CFE074605E0C3E0FFF7B1
:100A500027FEC01B022887D8686A8007F7D4207851
:100A600004274007002861DA00200190E869C000EF
:100A700008D4E969B8060143E961E9690140012048
:100A80000091019096480168C90511D4016882154A
:100A900011430160FFF704FE009005E0FFF700FE40
:100AA0000099401A642898D88D480068C005F5D58B
:100AB000A06801280AD0002801D0052811D0286A92
:100AC000400840002862286AB84302E0286A0121F1
:100AD00008432862A068002812D0FFF7E1FD0090CB
:100AE0000AE0286A38432862F0E7FFF7D9FD009949
:100AF000411A7C4881426ED8286A8007F5D50DE0FE
:100B0000FFF7CEFD009006E0FFF7CAFD0099411AFD
:100B1000744881425FD8286A8007F5D4019800287C
:100B200004D0E969012000078143E9612078C0060B
:100B300035D5606901280CD0401D686B24D038433E
:100B40006863686B400840006863FFF7A9FD0746CB
:100B500022E0686B38436863686B0121084368636F
:100B6000FFF79EFD074604E0FFF79AFDC01B022831
:100B700031D8686B8007F7D5686BF8218843A16985
:100B8000C900084368630AE0B8436863F4E7FFF705
:100B900087FDC01B02281ED8686B8007F7D4207819
:100BA000800637D568680007800F032814D068686E
:100BB0000007800F022804D16868C003800F032853
:100BC0000AD0206A0028686B16D030436863FFF7AC
:100BD00067FD06460CE062E0686B80031AD5206A68
:100BE000012877D116E0FFF75BFD801B022856D85D
:100BF000686B8003F7D50DE0B0436863FFF750FDE5
:100C0000064604E0FFF74CFD801B022847D8686BBE
:100C10008003F7D4606A002866D069680907890FE5
:100C2000022942D0012636060228286805D0B043A2
:100C30002860FFF735FD044633E0B0432860FFF736
:100C40002FFD074604E0FFF72BFDC01B022826D826
:100C500028688001F7D4E86A216B00090001084385
:100C6000E862A16AE06A084369687B22D203914383
:100C700008436860286830432860FFF711FD044688
:100C800004E0FFF70DFD001B022808D8286880014A
:100C9000F7D529E0FFF704FD001B022801D9032046
:100CA000FEBD28688001F5D41EE00128F8D06868F0
:100CB000E96A0322D203A36A02409A420AD10907D1
:100CC000226B090F914205D10F2189040840E16A86
:100CD000884209D00120FEBD000001000010024042
:100CE00000700040881300000020F4E7094910B5A7
:100CF000401E884201D9012010BD074C60610321CC
:100D0000081F00F01BFB0020A061072020610020CD
:100D100010BD0000FFFFFF0000E000E010B5040080
:100D200003D0E06F002802D007E0012010BD0021B1
:100D300078200155204600F027F82420E06720683D
:100D40000168490849000160204600F001FA0128C5
:100D5000ECD0606A002802D0204600F001F920683B
:100D600041680922D20291434160206881682A22A9
:100D7000914381602068016801221143016020468F
:100D800000F054F910BD000010B586B004461421DF
:100D90006846FFF7C0FA1249206888421DD1114801
:100DA000C269012149040A43C261C2690A4005922D
:100DB00042690A4342614069084005900C20009056
:100DC0000220019000200290032003900120049053
:100DD00009206946C006FFF797FB06B010BD00006A
:100DE0000044004000100240FFB50446C06F83B0CD
:100DF00017460D46202802D0022007B0F0BD002D76
:100E00000BD0002F09D00120A1680003814206D138
:100E10002069002803D1E80701D00120EDE7002177
:100E2000842001512120E067FFF73AFC2646403636
:100E30000190378277820120A1680003814202D1AC
:100E40002069002802D02F46002511E000270FE07E
:100E500000228021204600F013FA002815D1002F2F
:100E600017D02168387808857F1C708A401E7082F0
:100E7000708A019B002806980090E9D10022402149
:100E8000204600F0FDF900280AD02020E06703206A
:100E9000B3E728882168C005C00D0885AD1CE4E7CC
:100EA0002020E0670020A8E7FEE7000008B505481D
:100EB0004269012149040A434261406908400090A7
:100EC00008BD00000010024010B50C480A4901603E
:100ED0004B21C901416000218160C16001618161D4
:100EE000C1610C22016242614162FFF717FF0028D5
:100EF00001D0FFF7F4FA10BD0044004010000020BC
:100F0000FEE77047704710B5FFF7D0FB10BD10B576
:100F100092B034216846FFF7FEF900240F940220B6
:100F200000900D9401200E940390102009940490D9
:100F300010946846FFF7D8FC002801D072B6FEE78F
:100F400007200D900E940F94002110940DA8FFF728
:100F5000FFFB002801D072B6FEE712B010BD70474B
:100F600010B5818CC90707D001684A6801235B046A
:100F70009A43836A1A434A60818C890707D50168BE
:100F80004A6801231B049A43C36A1A434A60818C4E
:100F9000490707D501684A6801239B049A43036BFC
:100FA0001A434A60818C090707D501684A68012302
:100FB000DB039A43436B1A434A60818CC90607D509
:100FC0000268916801231B039943836B1943916065
:100FD000818C890607D501688A6801235B039A43DF
:100FE000C36B1A438A60818C490612D503685A681C
:100FF00001210905046C8A4322435A60026C8A422B
:1010000007D10268516803235B059943436C194378
:101010005160818C090607D501684A680123DB0409
:10102000806C9A4302434A6010BD0000FEB507463B
:101030000025803704467D60FFF732FB0190206871
:101040000068264600076036002819DA2748009015
:101050000121002249052046019B00F011F90028DA
:101060000ED0EFF31080012181F3108821680A6807
:1010700080239A430A6080F310882020E06729E0EB
:1010800020680068400728D51848009001210022F8
:1010900089052046019B00F0F3F800281DD0EFF3EE
:1010A0001080012181F3108821680A68FF23213311
:1010B0009A430A6080F31088EFF31080012181F3D6
:1010C000108821688A68520852008A6080F310886C
:1010D0002020386035760320FEBD2020E067386090
:1010E0002566656635760020FEBD0000FFFFFF0126
:1010F00010B5EFF31081012282F3108802681368A3
:10110000FF242134A343136081F31088EFF310818F
:10111000012282F31088026893685B085B00936089
:1011200081F31088016E01290BD1EFF310810122A8
:1011300082F31088026813681024A343136081F3BC
:101140001088202280210A5000210166816610BD8E
:1011500070B5044680682169E26908436169002529
:1011600011432268084311683F4B19400143116045
:1011700021684868032212039043E26810434860E4
:10118000A169206A084321688A680B231B029A43DD
:1011900002438A6035492068884210D13448006B88
:1011A0008007800F0ED0012805D0022805D0032823
:1011B0000AD1022109E0042107E0082105E02D49B8
:1011C000884201D1002100E010210120E369C00321
:1011D000294A2A4E834222D1002906D0022907D06B
:1011E000042907D0082935D108E0FFF739FB03E0CF
:1011F000104603E0FFF744FB002830D06168400050
:101200004A088018FFF789F801461039B14221D801
:101210001A49491C01400007400F08431DE00029FE
:1012200006D0022907D0042907D0082912D108E0E6
:10123000FFF716FB03E0104603E0FFF721FB002851
:101240000DD061684A081018FFF767F80146103999
:10125000B14201D9012502E080B22168C8600020B6
:10126000A066E066284670BDF369FFEF00380140D4
:10127000001002400044004000127A00EFFF00001E
:10128000FFB5064681B080360546044660350A9FA4
:101290002EE0781C2CD0FFF703FA0499401AB842CC
:1012A00014D8002F12D020680168490720D5C169E1
:1012B000C94309070CD4082707622046FFF718FF27
:1012C000776000202876012005B0F0BD0320FBE701
:1012D000C069C04300050BD401202168C002086228
:1012E0002046FFF705FF2020706000202876EDE7FC
:1012F0002068C1690298884305D000210398814283
:10130000C7D00020E0E70121F8E7F8B5040C8BB264
:10131000264682B25E430D0C1046370C5843360405
:1013200080190021794116466E43370C3604801926
:10133000794126466E438919F8BD00008307FF22D4
:10134000DB0E9A408907090E9940002808DB8308C4
:1013500009489B001B1818689043084318607047A1
:101360000007000F0838830804489B001B18D86941
:1013700090430843D861704700E400E000ED00E0CE
:10138000FFF79CF9FFF7C3FDFFF790FDFFF79CFD0A
:10139000074C6420FFF7A6F814230F2205A1044888
:1013A000FFF722FD2068C169C9434906FBD4F0E775
:1013B0001000002065726972694963797461696C13
:1013C0000D0A000002030405060708090A0B0C0DAC
:1013D0000E0F10100102030405060708090A0B0C82
:1013E0000D0E0F10000000000000000001020304B9
:1013F0000607080900000000010203041C1400088D
:101400000000002010000000040100082C14000857
:1014100010000020E8060000200100080100000084
:0C142000040000000000000000127A0030
:04000005080000C12E
:00000001FF
